:020000040000FA
:040000008831892D8D
:040008008831112EFC
:02000E00E5010A
:10001000E801E9016108E6006208E700651A0800E6
:10002000631C18286608E80767080318670FE907C4
:100030000310E40CE30C0310E60DE70DE50A0E28AF
:1000400001305E02031D262800305D0203183A28A5
:100050005D08E1005E08E2000530E300E4010720EE
:100060006808DF006908E000E0365F0CDD0060082A
:10007000DE0046285D08DF00DE08DE36DF0C5F08A4
:10008000003EE0000230DE3D6008DD005D08FF3C20
:10009000DF005E08031C5E0A033CE0005F08DD0031
:1000A0006008DE005C08003A03196028013A031971
:1000B0008F28033A0319BE28013A0319ED280800D6
:1000C00003305E02031D6628FF305D02031C6D28AD
:1000D00025009A0122008E1508005D08DF005E0CE5
:1000E000E000DF0CE00CDF0C5F0825009800220028
:1000F000DD1C7C2825009A162200DD1881282500A9
:100100009A1222005D1C862825001A1622005D180E
:100110008B2825001A120C3025009A0008000330A5
:100120005E02031D9528FF305D02031C9C282600FB
:100130009A0122000E1708005D08DF005E0CE00047
:10014000DF0CE00CDF0C5F08260098002200DD1CAD
:10015000AB2826009A162200DD18B02826009A1235
:1001600022005D1CB52826001A1622005D18BA2848
:1001700026001A120C3026009A00080003305E0296
:10018000031DC428FF305D02031CCB282600930109
:1001900022000C1508005D08DF005E0CE000DF0C9B
:1001A000E00CDF0C5F08260091002200DD1CDA283D
:1001B000260093162200DD18DF2826009312220065
:1001C0005D1CE4282600131622005D18E92826008D
:1001D00013120C3026009300080003305E02031D4A
:1001E000F328FF305D02031CFA282500930122004A
:1001F0008E1608005D08DF005E0CE000DF0CE00CEE
:10020000DF0C5F08250091002200DD1C0929250074
:1002100093162200DD180E292500931222005D1C82
:1002200013292500131622005D1818292500131222
:100230000C30250093000800DC01DD01DC1908000A
:10024000501C24294F08DD07D00C0310CF0DDC0A09
:100250001E2900308500203084005908CF0011305D
:10026000D0001C215D0884070008043A03194729BF
:1002700000308500203084005908CF001130D000B4
:100280001C215D0884070008053A031D53295A08FC
:10029000FF3CDC005B08031C5B0AFF3CDD005C08E4
:1002A000DA005D08DB005908DC005A08DD005B0C51
:1002B000DE00DD0CDE0CDD0CDE0CDD0CDE0CDD0CFE
:1002C000DE0CDD0CDE0CDD0C0330DE05202008002A
:1002D0005808003A03197C29013A03198029033A86
:1002E00003198429013A03198829073A03198C292B
:1002F000013A03199029080002302100E1000800AA
:1003000002302100DD00080002302100DF0008007B
:1003100002302100E000080002302100DA0008006D
:1003200002302100DE0008000030D8002030D70065
:100330005408CF001130D0001C215D085707D500AC
:100340005808D6000318D60A5608850055088400B8
:100350000C30840700308000550884000D3084077D
:10036000840A0030D90080018403590880005508B0
:1003700084000B308407003080005408D900DA0173
:10038000DB0129210800540853020318CA29540824
:10039000D6000800530855020318D1295508D60085
:1003A00008005308D60008000030D2002030D100E9
:1003B0004C08CF001130D0001C215D085107CD0042
:1003C0005208CE000318CE0A4E0885004D0884005E
:1003D0000008023A031908004E0885004D08840001
:1003E0000008053A03190800A408031D392A4E081D
:1003F00085004D088400033084070130D9000008CF
:10040000FF390319062AD935FF3E002A003085003E
:1004100070308400D701831BD70A0408D8004E0827
:1004200085004D0A84000008D8075808840083130B
:100430005718831759080005D5004E0885004D0848
:10044000840003308407800A0008D6004D08840029
:100450000230840700085602031C362A4E08850025
:100460004D0884000330840700308000D50803194C
:1004700008004C08D400043054020318F32A00305A
:10048000D9002030D8005408CF001130D0001C21F2
:100490005D085807DA005908DB000318DB0A5A0820
:1004A000CD005B08CE00A40803195B2A0030D600FB
:1004B0002030D5005F2A4D08D5004E08D6005408DC
:1004C0004C0203186A2A4E0885004D088400000378
:1004D000031DF32A5408D800682122004E08850025
:1004E0004D0884000C3084070008D7005708003AF4
:1004F0000319842A033A0319842A023A0319842A25
:10050000033A0319842AF02A4E0885004D08840016
:100510000C30840701308000003085006430840096
:10052000D901831BD90A0408DA005608850055084A
:100530008400043084070008D800D8355808DA074A
:100540005A0884008313591883170008DD00840AB1
:100550000008DC004E0885004D0884000730840741
:10056000840A5C08800084035D0880004D088400D4
:100570000F308407840AFF30D800800084035808B5
:1005800080004D088400073084070008D800840AE2
:100590005808FF3AFF3003190006031DF02A4E08E1
:1005A00085004D0884000F3084070008DA00840AB3
:1005B0000008D9004D0884000D308407840A5908CA
:1005C000800084035A0880005408D9004D08840034
:1005D0000D3084070008DA00840A0008DB002921B6
:1005E0002200D40A3B2A4C0AD300043053020318D9
:1005F000080000308500203084005308CF001130FF
:10060000D0001C215D0884070008033A031D080080
:100610005308D40094212200D30AF52A4308803AD3
:10062000C40080304402031D172B00304202031C1B
:1006300008000D30420243080318202B0319222B17
:10064000C31F080001304206031943080319402B59
:1006500003304206031943080319402B05304206B4
:10066000031943080319402B0730420603194308B6
:100670000319402B0930420603194308031D432B7D
:100680000130A400442BA401AC014208AD000800D5
:100690004608803A0319562BC03A0319592B413AA0
:1006A00003195C2B093A03195F2B5F2B0130C8003B
:1006B00008000230C80008000330C8000800C80164
:1006C000080022002D08C400C50108000030CB003E
:1006D0002030CA004708CF001130D0001C215D082F
:1006E0004A07C8004B08C9000318C90A4908850011
:1006F000480884000B308407013080004708CC0094
:10070000D42108000030CC002030CB004508CF00B9
:100710001130D0001C215D084B07C9004C08CA00ED
:100720000318CA0AA40803199A2B0030D2002030FB
:10073000D1009E2B4908D1004A08D2004608013A50
:100740000319B22B033A0319C12B023A0319D02B18
:10075000033A0319DF2B063A0319EC2B013A03196C
:10076000FC2B08004708D300D4010530D500C32175
:100770005208850051088400043084075608800020
:1007800008004708D300D4010130D500C321520826
:100790008500510884000530840756088000080051
:1007A0004708D300D4010530D500C3215208850085
:1007B0005108840006308407560880000800470866
:1007C000D300D4010530D500C3214A08850049086B
:1007D00084005608800008004708D3000130D40088
:1007E0000830D500C3214A0885004908840002303A
:1007F00084075608800008004708D300D401093058
:10080000D500C3214A088500490A840056088000A3
:1008100008000030D2002030D1004908CF0011304C
:10082000D0001C215D085107CB005208CC000318F2
:10083000CC0AA4080319212C0030D4002030D300A6
:10084000252C4B08D3004C08D4004A08013A031960
:10085000392C033A0319432C023A03194D2C033A5D
:100860000319572C063A03195F2C013A0319692C16
:10087000712C540885005308840004308407000854
:10088000D500D601080054088500530884000530BF
:1008900084070008D500D6010800540885005308D5
:1008A0008400063084070008D500D60108004C08F3
:1008B00085004B0884000008D500D60108004C08CC
:1008C00085004B088400023084070008D500D6015B
:1008D00008004C0885004B0A84000008D500D601AA
:1008E0000800D501D60108003F08103A03198E2CE4
:1008F000303A03198E2C243A0319922C063A031924
:100900009C2C0A3A0319A62C883A0319A62CC03A43
:100910000319A62C413A0319A62CAF2CB5010130BE
:10092000C1000800612301304402C2004508C30031
:10093000031CC3030E23AF2C61234408C2004508E7
:10094000C300C20A0319C30A0E23AF2C3F08C60016
:1009500048234808023EB5000130C1000800612369
:10096000C408031DB72CC508031DB72C002D01308A
:100970004406031945080319082D023044060319DB
:1009800045080319102D03304406031945080319BF
:10099000182D04304406031945080319202D05308D
:1009A0004406031945080319282D06304406031987
:1009B00045080319302D073044060319450803196B
:1009C000382D0A304406031945080319402D0B3011
:1009D0004406031945080319482D0C304406031931
:1009E00045080319502D083044060319450803191A
:1009F000582D09304406031945080319602D672D49
:100A00005C302100E6006830E7007A30E800672DAE
:100A10005C302100E6006830E700BC30E800672D5C
:100A20005C302100E600FA30E7007A30E800672DFC
:100A30005C302100E6007A30E700BC30E800672D2A
:100A40005C302100E6007830E7001A30E800672DBE
:100A50005C302100E6007830E700BC30E800672D0C
:100A6000EC302100E6006830E7005C30E800672DDC
:100A7000EC302100E6006830E700BC30E800672D6C
:100A80006C302100E600EE30E7009E30E800672D74
:100A900078302100E6006830E7006C30E800672D10
:100AA00076302100E6005C30E700EC30E800672D8E
:100AB0001A302100E6007C30E7005830E800672D4E
:100AC0001A302100E6005830E700BC30E800220070
:100AD000C10108003F08003A0319812D203A03198B
:100AE000872D283A03198D2D883A03198D2DC03A88
:100AF00003198D2D413A03198D2D113A0319942DA7
:100B0000982D01302100E600E700E800982DB301A0
:100B10000230B5000130C10008003F08C60048237C
:100B20004808C7006623982D0130B500C1000800B1
:100B30002200C101080002303502C1003F08203AFE
:100B40000319B82D243A0319BE2D063A0319D02DE6
:100B5000123A0319E22D183A0319E62D883A0319BF
:100B6000E62DC03A0319E62D413A0319E62D012E70
:100B7000B30A063033020318B301012E4108C50041
:100B80003308C6004108C9003308CA0009240130EF
:100B90005502C7005608C800031CC8038223012E53
:100BA0004108C5003308C6004108C9003308CA001F
:100BB00009245508C7005608C800C70A0319C80AFF
:100BC0008223012E0130B500C50008003F08C60091
:100BD00048234808C200C4014208023EC30003186B
:100BE000C40A3508430603194408031DFB2D4208B7
:100BF000CC00D421012E4208023EB5000130C500D0
:100C000008003308013A0319152E033A03191B2E65
:100C1000023A0319212E053A0319272E013A031926
:100C20002D2E073A0319332E382EEE302100E60020
:100C30005D30E700382E76302100E6005D30E700B9
:100C4000382E68302100E6005930E700382E783021
:100C50002100E600D730E700382EEC302100E60016
:100C60005D30E700382EFA302100E600ED30E70075
:100C700022004108C9003308CA0009245508C200EF
:100C800000308500C030840042088407000821003D
:100C9000E8002200C50108000030CB002030CA0067
:100CA0004708CF001130D0001C215D084A07C8005A
:100CB0004B08C9000318C90A490885004808840080
:100CC0000008023A03190800490885004808840012
:100CD0000008053A031908004708CC0004304C020C
:100CE000031808000030D3002030D2004C08CF0099
:100CF0001130D0001C215D085207D4005308D500E4
:100D00000318D50A5408C8005508C900A4080319D7
:100D10008E2E0030CE002030CD00922E4808CD001F
:100D20004908CE004C08470203189D2E490885004B
:100D3000480884000003031D08004908850048088E
:100D400084000C3084070008D1005108003A0319D0
:100D5000B32E033A0319B32E023A0319B32E033A02
:100D60000319B32EE32E0030850064308400D301D4
:100D7000831BD30A0408D4004E0885004D08840064
:100D8000063084070008D200D2355208D407540830
:100D900084008313531883170008D700840A0008BF
:100DA000D600490885004808840009308407840A71
:100DB00056088000840357088000480884000C30DF
:100DC00084070330800049088500480884000B3000
:100DD000840700308000CC0A6E2E3508003A0319D3
:100DE000012F013A03190C2F033A0319172F013A67
:100DF0000319172F073A0319172F013A0319172F51
:100E000008003D08BF003E08C0006A25C10803195C
:100E100008000130B60008003D08BF003E08C000D1
:100E20007424C108031908000130B60008003D0809
:100E3000BF003E08C0009B25C5080319080001300B
:100E4000B60008004108C5004208C6004408003C3E
:100E50000318352F4608850045088400C50A031984
:100E6000C60A43088000C403262F4108C700420871
:100E7000C80008000030C6002030C5004008CF0080
:100E80001130D0001C215D084507C1004608C20092
:100E90000318C20A42088500410884000B30840709
:100EA00080080319572F4008C7004C260800400847
:100EB000C700662308000030C5002030C2003F088C
:100EC000CF001130D0001C215D084207C00045084A
:100ED000C1000318C10A410885004008840003309E
:100EE00084070030800008000030C5002030C200B8
:100EF0003D08CF001130D0001C215D084207C00022
:100F00004508C1000318C10A410885004008840053
:100F10000008023A031908004108850040088400CF
:100F20000008053A031908004108850040088400BC
:100F30000D3084070008C600840A3F080002031D24
:100F4000A32F3E084602031808003D08D800682178
:100F5000220041088500400884000D308407840A7F
:100F60003E08C6003F088000840346088000400811
:100F700084000C308407033080003D08D90040080D
:100F800084000D3084070008DA00840A0008DB00C2
:100F9000292108002200BC013508013A0319E52F78
:100FA000033A0319DC2F013A0319DC2F073A03191E
:100FB000DC2F013A031DE52F003085007A308400D4
:100FC0000230350284070008BC043C082100E90017
:100FD0002200B60803190800BD01BE01ED26B601C6
:100FE0000800FF30BE00BF0104303F028831031803
:100FF000062800308500E23084003F088407801C0A
:1010000003283F08BE00BF0A8031F42F3E0A0319AF
:1010100008003D0885003C08840000083E060319CE
:1010200008003D0885003C088400043000020318D5
:1010300021283D0885003C0884000008C700803155
:101040004C263E08C700803166233D0885003C08D9
:1010500084003E08800008002100621C0800621025
:1010600001304B02031D362800304A0203183B288A
:101070002200BE01562802304B02031D41280030D9
:101080004A020318472801302200BE0056280330C8
:101090004B02031D4D2800304A020318532802302A
:1010A0002200BE00562803302200BE003D08850005
:1010B0003C08840000083E06031908003D0885002E
:1010C0003C0884000430000203186E283D088500A7
:1010D0003C0884000008C70080314C263E08C70049
:1010E000803166233D0885003C0884003E0880006E
:1010F00008002200BC0104303C0203180800003044
:101100008500E23084003C088407001CAE280030D3
:101110008500E23084003C08840700103C08BD00D4
:1011200000308500CA3084003C08C0000310400D28
:1011300084070008BE00840A0008BF00BE0DBF0D72
:10114000BE0DBF0DBE0DBF0DBE0DBF0DBE0DBF0D43
:10115000BE0DBF0DC030BE05803174272200BC0A11
:1011600088317B2800302200BD00E330BC003D0800
:1011700085003C088400001DCE283D0885003C0801
:1011800084000011BE0104303E020318CE283E0840
:10119000BF0080315B27BE0A8831C3280030BF0002
:1011A000E230BC003F08BD003D0885003C088400DB
:1011B000001D08003D0885003C0884000011043033
:1011C000D800803168212200BE0104303E0203189D
:1011D00008003E08CC008031D421BE0A8831E528C1
:1011E000BD0104303D02031808000030BF00E230AA
:1011F0003D07BE000318BF0A3F0885003E08840073
:10120000001D16293F0885003E0884000011BC0817
:10121000031910293D08C00080313A278831282958
:101220003D08C70080316623883128293F088500A2
:101230003E088400801D28293F0885003E08840060
:101240008011BC08031D28293D08C70080314C26A9
:10125000BD0A8831F1282200BC0104303C02031889
:10126000080000308500E23084003C088407001C40
:10127000602900308500E23084003C0884070010BB
:101280003C08D90000308500CA3084003C08BD000D
:1012900003103D0D84070008DA00840A0008DB0013
:1012A000DA0DDB0DDA0DDB0DDA0DDB0DDA0DDB0D02
:1012B000DA0DDB0DDA0DDB0DC030DA0580312921C6
:1012C0002200BC0A88312D292100621C080062100E
:1012D0002200BC01BD01BE01BF0121004A0822005D
:1012E000C000803021004A024B0803187D29031DED
:1012F0007D29FF302200BC00B02901304B02031DC4
:10130000832980304A0203188D2922004008803C3E
:10131000BC0080304002BD00B02902304B02031DEA
:10132000932980304A0203189D2922004008803CFE
:10133000BD0080304002BE00B02903304B02031DC7
:10134000A32980304A020318AD2922004008803CBE
:10135000BE0080304002BF00B029FF302200BF0035
:10136000D9013C08DB00C201DA01803129210130BA
:101370002200D9003D08DB00C201DA012921023038
:101380002200D9003E08DB00C201DA012921033026
:101390002200D9003F08DB00C201DA012921080040
:1013A00023009D1CD5291D121D1622002F082E0674
:1013B000031DDC29C001080000308500A030840036
:1013C0002F0884070008BC00AF0A1F30AF05F030BB
:1013D0003C05BD003D08F03A0319D02980303C059A
:1013E000BE00BF01BE080319BF0ABF08031D1B2AA8
:1013F000B2013C08B000F0303C05C1004108A03A01
:101400000319152A603A0319152A103A0319152AE7
:10141000503A0319182A103A0319182A203A0319C6
:10142000182A503A0319182A182A0130B100D02975
:101430000230B100D029B0080319D029003085004E
:10144000EE3084003208B20A84073C08800031087C
:101450003202031CD029B201F0303005C10041082E
:10146000803A03193F2A103A03193F2A703A0319A8
:101470003F2A503A03193F2A603A031DD029300809
:10148000C0000800200091149112210091109116C3
:1014900023001F129F159F101F101E139E121E1255
:1014A0009E111E111E109D171D139D161D169C01C9
:1014B0003F309B00080022008D178E170E160D1767
:1014C0000C120C160C120C160C120C160C120C161C
:1014D0000C120C160C120C160C120C160C120C160C
:1014E0008C128C16A701A801A901AA0108000030DE
:1014F0002200BF002030BE002508CF001130D000F0
:1015000080311C215D083E07BC003F08BD00031868
:10151000BD0AA40888310319922A0030C100203086
:10152000C000962A3C08C0003D08C1003D08850067
:101530003C0884000C3084070008C2004208013ACD
:101540000319AC2A033A0319B72B013A0319542B98
:10155000033A0319B72BB72B3D0885003C088400DC
:10156000073084070008C500840A0008C6003C084C
:1015700084000D3084070008D100840A0008D200DE
:10158000D301D4018403C701C8015108C50752081B
:10159000C63D5308C73D5408C83D3D0885003C087A
:1015A00084000F3084070008C900840A0008CA00BC
:1015B000CB01CC014C084802031DE82A4B08470226
:1015C000031DE82A4A084602031DE82A4908450285
:1015D0000311031C452BC81B452B3D0885003C0807
:1015E00084000F3084070008D300840A0008D2006A
:1015F0003C0884000D308407840A5208800084036C
:1016000053088000410885004008840005308407A5
:1016100080080319142B3D0885003C0884000C3019
:10162000840702308000B72B0030850064308400CE
:10163000D201831BD20A0408D30041088500400868
:101640008400063084070008D100D1355108D30743
:10165000530884008313521883170008D600840AA5
:101660000008D5003D0885003C0884000930840747
:10167000840A550880008403560880003C088400D2
:101680000C30840703308000B72B3D0885003C08F0
:1016900084000D308407840A4508D1004608800084
:1016A000840351088000B72B3D0885003C08840066
:1016B000093084070008D100840A0008D2003C08E1
:1016C00084000D3084070008D500840A0008D60085
:1016D000D701D8018403D301D4015108D50252089F
:1016E000031C520FD6025308031C530FD702540891
:1016F000031C540FD8025508C5005608C6005708E9
:10170000C7005808C8004808003C031D912B470833
:10171000003C031D912B4608003C031D912B4508FE
:10172000003C0318952BC81FA92B3D0885003C08D9
:1017300084000D308407840A0030D10080018403C6
:10174000510880003C0884000C3084070030800081
:10175000B72B3D0885003C0884000D308407840ABF
:101760004508D10046088000840351088000250800
:10177000CD00CE014D08003C4E080318031DCE1BC2
:10178000C92B3D0885003C0884000008023A031973
:10179000D12B3D0885003C0884000008053A031D54
:1017A000EC2B0030D2002030D1004D03CF0011309F
:1017B000D00080311C215D085107D3005208D400AD
:1017C0000318D40A5308BC005408BD00CD080319FF
:1017D000CE03CD038831BA2B2508D9003D088500FA
:1017E0003C0884000D3084070008DA00840A0008F1
:1017F000DB00803129212200A50A043025020318CC
:10180000A50108002200BA0104303A0203180800BA
:101810000030C0002030BF003A08CF001130D000A7
:1018200080311C215D083F07BB004008BC00031845
:10183000BC0A3B08C1003C08C200C3011130C4000F
:1018400022273C0885003B088400063084070330CB
:1018500080003B0A8400003080008403023084074B
:10186000013080003A08D40094212200BA0A88315D
:10187000042C22002108003C0318432CA10B080073
:1018800021009D14080021009D1808002200200A54
:10189000031D4C2CA001952C0030BD00E230200728
:1018A000BC000318BD0ABE0121001C082200BF00B5
:1018B00021001B082200BE0400308500CA308400CD
:1018C0002008C0000310400D8407840A3E08C100B0
:1018D0003F0880008403410880003D0885003C08E3
:1018E00084000014801C822C3E0822023F08031C46
:1018F000902C031D902C3D0885003C08840080102E
:101900008015902C00303F02031D882C23083E02D6
:10191000031C902C3D0885003C08840006308004A0
:10192000A00A2008033C031CA0012008003A031968
:10193000A32C013A0319A72C033A0319AB2C013A43
:101940000319AF2CB22C293021009D00B22C193084
:1019500021009D00B22C153021009D00B22C1130C9
:1019600021009D000A302200A1000800F030210073
:101970009900CF308C003F308D006F308E002200F8
:101980009D131E1023008C0110308D0007308E0037
:1019900022008D178E170E160D178E150E170C15AB
:1019A0008E1624008C018D018E01210095138E1559
:1019B0000E170C158E160C30250093009A00260089
:1019C00093009A0025009101980126009101980149
:1019D00025009E0120009C01FF309B0091101C15EA
:1019E000911CF02C21008E110E130C118E129E17DB
:1019F0001E179E121E161E119E101E101D149512EB
:101A000095111515951015108B160B11013020002E
:101A10009800210011142000111042228B170B177F
:101A200002245B22B701B801C201C30180310E2339
:101A3000B9018831D0214008BA00BA080319242D11
:101A40000530D800803168218831392422002D08E2
:101A5000003A0319502D013A0319502D033A031986
:101A6000532D013A0319532D073A0319572D013A03
:101A70000319572D033A03195E2D013A03195E2D00
:101A80000F3A0319662D013A0319662D033A03191B
:101A9000682D013A03196A2D073A03196D2D6E2D31
:101AA000BC01F0206E2D0130BC00F0206E2D013005
:101AB000BD002C30BC002C2088316E2D0130BD00C3
:101AC0002C30BC008031F12788316E2D79206E2DAD
:101AD0002B216E2D642188316E2DB2202200A608A4
:101AE00088310319762DA6017722CA2739082B06DB
:101AF000BB002B083B0588310319852D2B083B05BE
:101B0000BD002B08BE008031ED262B08B9008831BE
:101B1000192D2200A4012100CA01CB01D201D30159
:101B2000E201FF302200A000A101C830A200E8308D
:101B3000A300A4010130F000DB30F1003730F200E7
:101B4000B630F3004430F4003430F500AD30F60028
:101B50002630F7005030F8005D30F900FF302000EB
:101B6000E400FF30E5004030E6000630E7002030BA
:101B7000E8000330E9009030EA000130EB00C830A3
:101B8000EC00ED016430EE00EF0100308500203004
:101B900084004330E3008001840A8831E30BCB2DBD
:101BA0002200A501A401A401A4012100E601DA019B
:101BB000EA012200A601A701A801A901AA01AB011F
:101BC000AC01AD01AE01AF01B001B101B201A401A0
:101BD0008030FA000830FB002030FC004030FD006F
:101BE0000130FE001030FF00FA302100C0008230CA
:101BF000C100BC30C200B630C300C630C40076306D
:101C0000C5007E30C600A230C700FE30C800F630E6
:101C1000C9002200B301B401B5010130B600A4012E
:101C2000B62C0B1D1A2E0530200095000130220025
:101C3000A6000B112000111C0B2F111022002708E9
:101C4000003A03192D2E013A0319842E033A031981
:101C5000D92E013A0319EE2E0B2FEA0104306A0245
:101C60000318462E00308500E63084006A08ED0037
:101C70006D0884070008EE0000308500EA3084001B
:101C80006A0884076E088000EA0A2E2EEA010830EE
:101C90006A020318822E00308500DA3084006A0858
:101CA0008407800803197F2E00308500DA30840015
:101CB0006A08ED006D0884078003DA3084006A0842
:101CC000840780080319712E0130ED006A08FF397E
:101CD00003196D2EED35FF3E672E6D082100ED04D2
:101CE0007F2E0130ED00EE016A08FF3903197C2ECA
:101CF000ED35EE0DFF3E752E6D092100ED0522003C
:101D0000EA0A472E0130A7008C128C16003085009D
:101D1000EA308400280884070008EB008030EC00DB
:101D2000EC080319A22E0C126C086B05ED00EE01F5
:101D3000ED080319EE0A6E180D176E1C0D130C1624
:101D4000EC36902E8D178E170E160D178C128C16E2
:101D50000C120C160C120C160C120C160C120C1683
:101D60000C120C160C120C160C120C160C120C1673
:101D70002808003A0319C62E013A0319C82E033A5F
:101D80000319CA2E013A0319CC2ECD2E8D13CD2E58
:101D90008E13CD2E0E12CD2E0D13A80A043028025C
:101DA000031CD52E0230A700A801C83020009700E0
:101DB0000B2F8C128C16AA010A3024008C002200F2
:101DC0000D130C120C160D178C128C168030A900F6
:101DD0000330A700FE30200097000B2F20008C1846
:101DE000F42E22002908AA0422000C120C168C12D0
:101DF0008C16A936A908031D082F20008C19022F64
:101E00002200AA1624008C0122002A08AB00A70198
:101E1000FE30200097002000911E090023001908C1
:101E20002200EB002E0AEC001F30EC052F086C0698
:101E30000319090000308500A03084002E088407B3
:0A1E40006B0880006C08AE0009007A
:020000040001F9
:02000E00A4FF4D
:02001000FFDF10
:00000001FF
